:020000040800F2
:10000000000C002071020008292F0008492C00086C
:10001000252F0008410A00085D3F0008000000008D
:100020000000000000000000000000003D2F00085C
:10003000450A000800000000392F0008412F000881
:100040008B0200088B0200088B0200088B0200085C
:100050008B0200088B0200088B0200088B0200084C
:100060008B0200088B0200088B0200088B0200083C
:100070008B0200088B0200088B0200088B0200082C
:100080008B0200088B0200088B02000800000000B1
:100090000000000000000000000000008B020008CB
:1000A0008B020008592F00088B0200088B02000801
:1000B000652F00088B0200088B0200088B020008E5
:1000C0008B0200088B0200088B0200088B020008DC
:1000D0008B0200088B0200088B0200080000000061
:1000E0008B0200088B0200088B0200080000000051
:1000F0000000000000000000000000008B0200086B
:10010000000000008B0200088B0200088B02000830
:1001100000000000000000000000000000000000DF
:100120008B0200088B0200088B0200088B0200087B
:100130008B0200080000000000000000000000002A
:100140000000000000000000000000002D2F00084B
:100150008B0200088B0200088B0200088B0200084B
:100160008B0200088B020008000000000000000065
:10017000000000000000000000000000000000007F
:10018000000000008B0200080000000000000000DA
:100190008B02000800F002F800F05AF814A696E866
:1001A000000CB244B344DA4501D100F051F8BAE88A
:1001B0000F000FA696E83000A5EB040504EB060738
:1001C000AAEB0704A7F101074FEA15154FEA34140B
:1001D000A4F10104AC4201D300F03AF813F0010F8E
:1001E00018BFFB1A43F0010300F001F8DBE71847E2
:1001F0001040000030400000103A24BF78C878C199
:10020000FAD8520724BF30C830C144BF04680C601C
:1002100070470000704700000023002400250026DE
:10022000103A28BF78C1FBD8520728BF30C148BF59
:100230000B607047642900F02381732900F00E835E
:10024000002070471FB503F005FF1FBD10B510BD9E
:1002500000F0C0FB1146FFF7F5FF03F081FE00F050
:10026000DEFB03B4FFF7F2FF03BC00F0E1FB00008C
:100270000948804709480047FEE7FEE7FEE7FEE73A
:10028000FEE7FEE7FEE7FEE7FEE7FEE70448054976
:10029000054A064B70470000452F000895010008ED
:1002A00000060020000C00200008002000080020AC
:1002B00053EA020C00F069802DE9F04B4FF0000684
:1002C000002B1FBFB3FA83F503FA05F424FA05F6F1
:1002D0005E4012BF1643B2FA82F502FA05F4C5F188
:1002E00020051EBF22FA05FC44EA0C04203556EA1C
:1002F000044C4FEA144418BF641C4FF000084FF040
:100300000009904271EB030C39D3002919BFB1FAEF
:1003100081F701FA07F6B0FA80F700FA07F6C7F19D
:1003200020071EBF20FA07FC46EA0C062037B6FB62
:10033000F4FCA7EB0507103F07F01F0BCBF12006DD
:100340002CFA06F60CFA0BFB44BFB3460026202F0E
:10035000A4BF5E464FF0000B5BEA060C08BF4FF0EF
:10036000010B19EB0B0948EB0608ABFB027C06FB03
:1003700002CC0BFB03CCC01B71EB0C01C1E70B469D
:10038000024641464846BDE8F08B13B5084318BF06
:100390004FF0FF300146AFF30080BDE81C407047CE
:1003A0000FB41CB50C0007AA009007D04142A1422F
:1003B00002D32044401E01E04FF0FF30074B7B4446
:1003C00069460190069800F01CFA0020002C01D02C
:1003D000009908701CBC5DF814FB00006704000065
:1003E00070B5044685690068C10601D5302600E075
:1003F0002026C00707D070BDD4E9012130469047C0
:10040000206A401C20626D1EF6D570BD70B5044692
:1004100085690078C00707D170BDD4E9012120208B
:100420009047206A401C20626D1EF6D570BD70B5E5
:100430000C460546012A05D02878800600D5EA69D1
:10044000002302E0012305E05B1C934202D2E05C42
:100450000028F9D1A869E618C01AA861286A1844CA
:1004600028622846FFF7BCFF04E0D5E9012114F813
:10047000010B9047B442F8D32846FFF7C7FF70BD81
:100480002DE9F0410646002410687529314616A56D
:1004900010D0AFF30080002802DA404213A507E035
:1004A00031688A0701D512A502E0490704D511A5D4
:1004B000012401E0AFF3008000210A2206F12407A5
:1004C00009E0B0FBF2FCB0FBF2F302FB1C003030A1
:1004D00078541846491C0028F3D123462A46304652
:1004E000BDE8F04100F02FB9000000002D00000031
:1004F0002B000000200000002DE9F05F8946044633
:100500004FF0000ADFF824B1FB44C0F820A02046D9
:10051000E168884700287DD0252806D0D4E901214C
:100520009047206A401C2062F1E700255F46204684
:10053000E16888472028064607DB312E05D2B81926
:1005400010F8200C08B10543F1E7A80701D525F004
:100550000405C4F81CA00027C4F818A02A2E09D04E
:10056000304603F070FD38B304EB8708303EC8F81E
:10057000186019E059F8041B204604EB87029161CA
:10058000E1688847012F064618D1E069002820DA83
:1005900025F020051DE0D8F8180000EB800006EBE0
:1005A00040003038C8F818002046E1688847064601
:1005B00003F049FD0028EED1012F0AD02E2E08D1DC
:1005C0002046E16888477F1C0646022F45F020053B
:1005D000C4DBA069002803DA404245F00105A061B0
:1005E000E80701D025F01005A6B1A6F141001928B1
:1005F00002D8203645F400654A463146204625603B
:100600004D46FFF717FE60B1012807D0ED1D25F01C
:10061000070000E007E000F1080978E705F10409A8
:1006200075E730467AE7206ABDE8F09F623B00003C
:1006300010B5431C02E010F8011B71B18107FAD11B
:100640004FF0013202C88C1A8C4314EAC211F9D05F
:10065000C01A0A0603D0C01E10BDC01A10BD0A047D
:1006600001D0801E10BD0902FCD0401E10BD431AEF
:1006700028BF9A4240F2F68010441144032A40F207
:10068000268010F0030F1EBF11F8013D521E00F826
:10069000013D10F0030F7FF4F6AF11F0030300F0FB
:1006A0006B81083AC0F00B8051F8043D083A51F8CC
:1006B00004CD40F8043D40F804CDFFF7F3BF121D10
:1006C0005CBF51F8043D40F8043DAFF30080D20711
:1006D00024BF11F8013D11F801CD48BF11F8012CDC
:1006E00024BF00F8013D00F801CD48BF00F8012CFF
:1006F00070474FF0000200B51346944696462039E5
:1007000022BFA0E80C50A0E80C50B1F12001BFF4CA
:10071000F7AF090728BFA0E80C5048BF0CC05DF830
:1007200004EB890028BF40F8042B08BF704748BF7E
:1007300020F8022B11F0804F18BF00F8012B7047F2
:100740007047704770472DE9F0470D46994692462D
:10075000044600F124080168880604D5E06921F008
:100760001001216000E00120A84201DD471B00E0EC
:100770000027A1697A1902EB0900081AA061207804
:10078000C00602D42046FFF72BFE002608E0D4E97D
:1007900001211AF806009047206A401C761C20624E
:1007A0004E45F4DB2078C0060AD52046FFF718FE38
:1007B00006E0D4E9012130209047206A401C2062E5
:1007C000381EA7F10107F4DC07E0D4E9012118F88D
:1007D00005009047206A401C2062281EA5F10105F3
:1007E000F3DC2046FFF712FE2078000602D5022037
:1007F000BDE8F0870120FBE701694A1C0261087827
:10080000704700B58FB0CDE9013100210591054950
:100810007944CDE9031011466846FFF76DFE0FB02D
:1008200000BD0000E5FFFFFFD1E900239A4202D29C
:10083000531C0B601070704710B5436913B1AFF3D0
:10084000008001E0FFF7F3FD012010BD127800F1F8
:1008500024010A7000224A700122EDE711684FF06E
:10086000FF32E9E7032A40F2308010F0030C00F079
:10087000158011F8013BBCF1020F624498BF11F8DA
:1008800001CB00F8013B38BF11F8013BA2F1040293
:1008900098BF00F801CB38BF00F8013B11F003030B
:1008A00000F02580083AC0F0088051F8043B083A6F
:1008B00051F804CBA0E80810F5E7121D5CBF51F811
:1008C000043B40F8043BAFF30080D20724BF11F88B
:1008D000013B11F801CB48BF11F8012B24BF00F8F0
:1008E000013B00F801CB48BF00F8012B704710B561
:1008F000203AC0F00B80B1E81850A0E81850B1E8D9
:100900001850A0E81850203ABFF4F5AF5FEA027C17
:1009100024BFB1E81850A0E8185044BF18C918C047
:10092000BDE810405FEA827C24BF51F8043B40F8E8
:10093000043B08BF7047D20728BF31F8023B48BFCD
:1009400011F8012B28BF20F8023B48BF00F8012B0B
:100950007047431A28BF9A427FF6C9AF104411442A
:1009600010F0030F1EBF11F8013D521E00F8013DAB
:1009700010F0030F7FF4F6AF103AC0F00A8010B504
:1009800031E9185020E91850103ABFF4F9AFBDE82A
:100990001040530724BF31E9081020E9081044BF74
:1009A00051F8043D40F8043D12F0030F08BF7047B2
:1009B000D20728BF31F8023D48BF11F8012C28BFEB
:1009C00020F8023D48BF00F8012C704700487047EE
:1009D000100000207546FFF7F9FFAE460500694696
:1009E000534620F00700854618B020B5FFF74EFCAF
:1009F000BDE820404FF000064FF000074FF0000820
:100A00004FF0000BAC46ACE8C009ACE8C009ACE85C
:100A1000C009ACE8C00921F007018D46704710B548
:100A20000446AFF300802046BDE81040FFF719BC34
:100A300001491820ABBEFEE7260002007047000007
:100A4000FEE700007047000072B600BFFEE700003E
:100A500070B581B00022009290F83C20012A03D1A9
:100A6000022001B070BD00BFD1F800E001221FFAE2
:100A70008EFC4FEA4C0380F83C200EEB4E0213FA3A
:100A80008EF31024BEF1090F88BFA3F11E0288BFA8
:100A90000C24036807251E59954026EA05051D51BB
:100AA0008D681E5905FA02F232431A514968062927
:100AB00006D801EB81014A1F194651F8345F0EE058
:100AC0000C2901EB810105D8A1F12302194651F847
:100AD000305F04E0A1F14102194651F82C5F1F2458
:100AE000944025EA04040C600CFA02F20C6842F20D
:100AF000043CC4F2010C2243ACF54174A3420A60E9
:100B00003ED1BEF1120F07D1DCF8001041F4800194
:100B1000CCF8001034E000BF2EF0010110292FD1D5
:100B2000DCF80010BEF1100F41F40001CCF8001009
:100B300026D140F20801C2F2000109684DF6836235
:100B4000C4F21B32A1FB0212910C01EB810149009E
:100B500000910099A1B1009901390091009979B1F2
:100B6000009901390091009951B100990139009122
:100B7000009929B100990139009100990029EAD121
:100B8000002180F83C10002001B070BD0068C06CEE
:100B900070470000002804BF0120704710B5016CA9
:100BA00000293DD0016CC90645D4016C41F2021206
:100BB0009143023142F204320164C4F2010211682D
:100BC00021F440311160136890E812102343D0F8EB
:100BD00010E013604A68012422F480724A604A6877
:100BE000C0F6007442EA0E224A604A6822F040725F
:100BF0004A604A6842EA0C024A608A6822F400624B
:100C00008A60C2688B681A438A60826A8B68A242D3
:100C100023F070638B608B6810D123F0405216E094
:100C2000044600F065F820460021616484F83C1019
:100C3000016CC906B9D5012153E000BF1A438A608F
:100C40008A6822F040528A60C26A8B681A438A60BE
:100C50008A6822F002028A608A68037E90F8204047
:100C600042EA43028A604A6884B142F400624A6000
:100C70004A684EF2000322F460424A60426ACFF6AC
:100C8000FF734C6803EB4232224301E022F400621E
:100C90004A60CA6A40F2000C22F47002CA62C36958
:100CA0004269CFF6F07CCC6A0CEB03532343CB6252
:100CB0008B6823F400738B6090F830308C6844EAC2
:100CC00043238B608B6823F480638B608B6843EADB
:100CD00082228A6000214164026C012363F30102D5
:100CE0000264002280F83C20BDE8104008467047AE
:100CF00080B586B042F200010068C4F20101002212
:100D000088420592CDE903220292019202D006B0F8
:100D100080BD00BF43F630000092C4F20200436978
:100D200043F480734361436903F480730093009B31
:100D30000092036843F001030360006800F00100C3
:100D4000009000980320CDE9010001F5604001A961
:100D5000039200F039F906B080BD000070B504467A
:100D600000680D468268520544BF80685FEAC05043
:100D700038D400F0FFF921680A68920749D4064682
:100D8000681C3CD0DDB90868800721D50868800759
:100D90003FD4086880071BD50868800739D40868E5
:100DA000800715D50868800733D4086880070FD5F9
:100DB00008688007E7D52CE00868800729D400F090
:100DC000D9F9801B2168A842F6D908688007F3D4B6
:100DD000206C40F004002064002084F83C000320D4
:100DE00070BD00BF206C40F020002064002084F81B
:100DF0003C00012070BD00BF0868800709D4086866
:100E0000800706D4086880075CBF08685FEA8070C6
:100E1000F2D56FF012000860206C40F4007020647E
:100E2000886810F0405F01D0002070BD207E00284F
:100E3000FAD1C86A10F4700F02D088684005F3D464
:100E4000206C20F480702064206CC004ECD4206CF2
:100E500040F001002064002070BD000010B581B09A
:100E60000021009190F83C10012903D1022001B02B
:100E700010BD00BF0468012180F83C10214651F8E4
:100E8000083FDB0729D10B684DF6836243F001036D
:100E90000B6040F20803C2F200031B68C4F21B326D
:100EA000A3FB02239A0C02EB42020092009AA2B129
:100EB000009A013A0092009A7AB1009A013A00929F
:100EC000009A52B1009A013A0092009A2AB1009A0F
:100ED000013A0092009A002AEAD10A68036CD2070C
:100EE0000CD143F01001016400F1440101200A68B3
:100EF00010430860002001B010BD00BF40F2017235
:100F000023EA020202F5807202646268520504D587
:100F1000026C012363F30D320264026C4FF0000C8B
:100F20000023D20444BF426C22F0060342F2000EBA
:100F3000436480F83CC06FF02200C4F2010E2060D0
:100F4000DEF80403C00609D074450BD1DEF80800B2
:100F500010F0405F06D14FF08040C8E7086810F0FD
:100F6000405FF8D0002001B010BD000090F83C10A8
:100F7000012904BF0220704701688A6822F001023B
:100F80008A608968C90705D1016C41F20112914359
:100F900001310164002180F83C10002070470000FE
:100FA000B0B5044600F0E6F8054640F20000C2F293
:100FB00000000078611C18BF044400BF00F0DAF89C
:100FC000401BA042FAD3B0BD2DE9F04F83B000F131
:100FD000200200F13E4741F20005009207F1FF7741
:100FE000C4F2020507224FEAB726A84208BF04222E
:100FF00000254FF000084FF00009042E38BF4FEADB
:10100000B72201920AE000BF09F1010908F10208C4
:10101000B9F1100F05F1040500F0A2800F6801225C
:1010200002FA09FE17EA0E0AEED0D1F804C0032234
:101030000CF003077E1E02FA08F4012E6FEA040B7F
:1010400012D88468CE6804EA0B0406FA08F6344322
:101050008460446824EA0E06CCF3001404FA09F410
:101060002643466004E000BF032F01D103271EE0A2
:10107000C6688C6806EA0B0604FA08F42643022FB9
:10108000C66014D16FF00302009E02EA590756F8B9
:1010900007C005F01C040F220B69A2402CEA0202D3
:1010A000A3401A43F251D1F804C00CF003070268C0
:1010B00007FA08F302EA0B021A431CF4403F0260ED
:1010C000A2D0002243F644030292C4F202031A683B
:1010D00043F6004442F480421A601A68C4F20104E4
:1010E00002F480420292029A29F003024FF6084C61
:1010F0002244CFF6FF7C52F80C3005F00C070F2687
:10110000BE40B343019E06FA07F73B4342F80C305A
:10111000A2684B6842EA0A0743F60C4CDE0258BF4D
:1011200022EA0A07A760C4F2010CDCF800209E0244
:1011300042EA0A0758BF22EA0A07CCF80070626840
:101140009E0342EA0A0758BF22EA0A07676022683C
:10115000DB0342EA0A0758BF22EA0A07276053E77F
:1011600003B0BDE8F08F0000002A08BF09048161C8
:101170007047000040F2F850C2F20000006870476B
:10118000D0F8DC0301F0F0BFD0F8DC0301F0F8BFC9
:10119000704700002DE9F04F85B0D0F8008004467C
:1011A000404602F0F3F8012840F08884206802F0FD
:1011B000DFF9002800F08284206802F0D9F90146A6
:1011C0002068890244BF4FF40011416102F0D0F958
:1011D00001462068C90244BF4FF48011416102F00A
:1011E000C7F901462068490144BF4FF08061416161
:1011F00002F0BEF901462068890744BF022141611F
:1012000002F0B6F901462068890018D54FF0005168
:101210004161D8F84014C90711D14046102102F0AD
:1012200055F8404601F0F2FF607A022803D12068A9
:10123000012102F075F92046FFF7A6FF206802F0B1
:1012400097F92668C0011CD5D6F840040490D6F85A
:1012500040040390039820F02E0003900498800728
:1012600000F1D6830498000700F1E083049880061B
:1012700003D5039840F0200003900398C6F840047B
:101280002668304602F074F9000701D4206805E0B2
:10129000204600F02FFC20680821416102F068F927
:1012A00001462068890140F18B8302F035F96179AC
:1012B0000290002900F080834FF4A0654FF00009F0
:1012C0004FF0000BCDF8048013E000BFA8194FF4D5
:1012D00000718160206800BF514602F05BF86079C0
:1012E0000BF1010B09F13C09834505F1200580F064
:1012F000638302990BF00F0021FA00F0C007EED0D3
:1013000058F8057026685FFA8BFA3046514602F0AD
:1013100027F939044FEA407066D4002800F1828032
:101320002068514602F01CF9800600F1898020688F
:10133000514602F015F98005C8D42068514602F0E4
:101340000FF9C00740F0AE802068514602F008F95E
:10135000400600F1B7812068514602F001F900070C
:1013600000F1E0812068514602F0FAF8C00600F171
:10137000E1812068514602F0F3F8000600F17A821C
:101380002068514602F0ECF8400500F187822068A1
:10139000514602F0E5F88007A1D5A919022088601E
:1013A00004EB090090F84D20013A082A97D8DFE8AD
:1013B00012F0A70209009B02CB02DD02E3020B0040
:1013C00009000B008BE700BF426C02230132032AA5
:1013D00080F84D304264C0F0AF82002104224164A5
:1013E00080F84C201DE200BF002825D4206851461B
:1013F00002F0B6F8C0054DD42068514602F0B0F8AE
:1014000000074BD42068514602F0AAF8400569D481
:101410002068514602F0A4F8000671D5072180200B
:1014200064E000BFA81904218160206804EB090171
:10143000072281F84D204FE70721042056E000BF26
:10144000A8192021816004EB0906707E012809D1CA
:1014500000207076206840F20231A6F84C10514608
:1014600001F098FFB07E01287FF439AFF07E0028AC
:101470007FF435AF96F82600032101281CBF012018
:10148000F076206886F84D10514601F083FF002069
:10149000706424E708214FF4807027E006210820BB
:1014A00024E000BF04EB090820680021C8F84410BC
:1014B000514602F055F8400605D5012088F819007C
:1014C000A8194021816098F81B00002800F01E81B7
:1014D000002088F81B00A819416821F48031416080
:1014E00015E100BF09214FF4806000BFAA19906088
:1014F00004EB0902206882F84D10514601F04AFFC2
:101500002068514602F02CF801462068890537D43E
:10151000514602F025F8C0073AD12068514602F042
:101520001FF8800600F17A802068514602F018F812
:10153000800700F19B802068514602F011F84006B8
:1015400000F1D4802068514602F00AF8C0067FF509
:10155000C6AE04EB090898F82600002818BF022838
:1015600040F06481A07900284FF00000C8F84400E2
:1015700000F0618198F81B00012800F05C8161E1B6
:10158000514601F007FFA8194FF400718160A6E6EB
:1015900005EB06082020C8F8080004EB0906F07ED9
:1015A000012807D10020F076D8F8040020F480301C
:1015B000C8F80400A07930B1306BD8F810106FF380
:1015C000DF41401AB0630121002086F84D1070649D
:1015D000C8F8081096F8260003280AD8DFE800F0BB
:1015E000022C022C2068514601F0D4FE1020C8F8CD
:1015F0000800A079012830D1B06B318DDDF804806E
:1016000008440138B0FBF1F0C0073FF468AE96F82B
:101610003C0080F0010086F83C0060E6A81920211B
:10162000816004EB0901887E01287FF458AE012017
:10163000C87620680322FCE6D8F80000514640F046
:101640000050C8F80000012086F84C002046012216
:10165000FFF79EFDA0790128CED096F83C00DDF87A
:10166000048080F0010086F83C0038E6A9190220C9
:10167000886004EB090090F84D20013A082A00F236
:10168000CE80DFE802F0B70587A76DBD07C307006E
:1016900025E600BF426C02230132032A80F84D3058
:1016A0004264C0F09380827E012A4FF000024264BF
:1016B00040F0B280A0F81B204A6822F480324A60D1
:1016C000AAE000BF04EB0901887E002200284FF049
:1016D000050081F84D0004BF0120487620684A6467
:1016E000514601F057FEA81940214FE7A8194021A3
:1016F000816004EB0900817E00294FF0050180F82C
:101700004D1004BF002141642068E5E5A8190121BE
:101710008160206888F84D10514601F03BFEDDF8ED
:101720000480DCE5A81908218160206804EB090128
:1017300006227EE604EB0900417E002200294FF0DC
:101740000401426480F84D1004D1017E002904BFD9
:10175000012141762068514601F01CFEA81986E05F
:10176000C27E0223012A80F84D3058D190F82620FD
:10177000032A34D1826C0132032A8264C0F0B08023
:10178000426C00238364022AC3769CBF0122027745
:1017900092E700BFC27E0223012A80F84D303ED17D
:1017A00080F84C304A6842F480324A60CA6842F09D
:1017B0004002CA60CA6822F02002CA6090F826205F
:1017C00042F00202022A10D029E000BF90F8262041
:1017D00005E000BF90F82620022380F84D3042F04B
:1017E0000202022A80F84C3019D10A6863F39F7212
:1017F0000A6014E0022180F84D1001210DE000BFC5
:10180000022180F84D10052107E000BF416C022243
:10181000013180F84D204164042180F84C1090F88B
:101820004C2020465146FFF7B3FC58E5032809D168
:101830000020C8F844002068042188F84D10514663
:1018400001F0A8FD98F81B0001280DD1002088F8B0
:101850001B00A819416821F480314160C16841F042
:101860002001C16001E000BFA819DDF8048010214B
:101870008CE600BFA079F8B104EB0900416C01319E
:101880000329416422D300214164042180F84C10D3
:10189000204651460422FFF77BFC1EE004EB0901C1
:1018A0002068092281F84D20514601F073FDA819E6
:1018B0004FF480616AE600BF04EB0901206807224B
:1018C00081F84D20514601F065FD06E0022180F8C7
:1018D0004C10A85961F39F70A851A819802155E6B2
:1018E00080F84C309BE700BFC17E01294FF0020118
:1018F00080F84D1093D1022280F84C2091E700BF70
:10190000022180F84D1090F82610012201F0FE010E
:10191000022980F84C207FF484AFA179012933D0CB
:10192000002945D190F83D10DDF8048081F00101D7
:1019300080F83D1075E700BF022280F84C2008684F
:1019400062F39F7008606CE7C37E0222012B80F86F
:101950004D2080F84C207FF464AF0022C2764868A6
:10196000022220F4803048605BE700BF022280F84A
:101970004D2080F84C2054E70221052280F84D10BC
:1019800080F84C204DE700BF416B89B1028D1144B6
:101990000139B1FBF2F1C90705D090F83D1081F093
:1019A000010180F83D10DDF80480012239E700BF15
:1019B000DDF8048035E700BF20684FF00071416119
:1019C00001F0D6FDC00679D52568A86920F0100081
:1019D000A861286A00F4F011B1F5802F69D1C0F335
:1019E0000A16002E65D000F00F08C8EB081004EBB3
:1019F0008000C16A00295CD000F11407D7E9080211
:101A00003244824232D9042087F8380051E000BFC6
:101A10000498C00702D02046FFF7B2FB039840F0BD
:101A200002000390049800077FF520AC039840F073
:101A3000080003900498400708D4204600F052F8AC
:101A4000049880063FF515ACFFF717BC607A0228B2
:101A500038D1049800F4C0212068B1F5802F14BF5C
:101A60000121022101F05CFD33E000BF284632462F
:101A700001F082FDB869796A3044B86188197862EA
:101A800005EB4810D0F81015BA8A964211D1002201
:101A9000C1F6F87211400CD000F5A0600168022276
:101AA00062F39F71016097F8280080F0010087F8C9
:101AB00028002068816941F01001816105B0BDE80E
:101AC000F08F00BFE079012804BF4EF66020C6F811
:101AD0000404204600F00AF8049880063FF5C9ABDC
:101AE000FFF7CBBBD0F8DC0301F072BBD0F8DC030E
:101AF00001F076BBD0F8DC0301F05ABB90F8D413A8
:101B0000012904BF0220704710B50168012280F846
:101B1000D4230446084601F085FD002084F8D40350
:101B200010BD000040F2000040F2F851C2F2000087
:101B3000C2F2000100780A68104408607047000093
:101B400080B543F60040C4F20200016841F4007120
:101B50000160016841F480610160016841F48071B5
:101B60000160032000F0B8F8002000F005F800F054
:101B700057F8002080BD0000B0B586B0002543F6C0
:101B800044010195C4F202010A68044642F00102D0
:101B90000A60096801A801F00101019101996946F3
:101BA00000F05CF900F08EF94DF68361C4F21B3150
:101BB000A0FB01014FF0FF3000EB914140F2BC402F
:101BC0000022C2F20000C4F2010240F2E733C0E991
:101BD0000021C0E902530561856100F0E3FB08B113
:101BE00006B0B0BD40F2BC40C2F2000000F02AFCDA
:101BF0000028F5D1192000F031F80F2C0CD819204D
:101C00002146002200F03CF840F204010020C2F21C
:101C100000010C6006B0B0BD012006B0B0BD0000F0
:101C200082B0002043F640010190C4F202014A68EC
:101C300042F480424A604A6802F480420192019A6A
:101C40000090086840F080500860086800F08050FC
:101C500000900098072002B000F03EB8002848BF6E
:101C6000704700F01F01012202FA01F11C2202EA72
:101C7000D0004EF20012CEF20002815070470000F8
:101C800010B54EF60C5CCEF2000CDCF80030C3F35D
:101C9000022E8EF00704042C28BF0424BEF1030397
:101CA0004FF0FF3E0EFA04F438BF0023A1439940E1
:101CB0000EFA03F39A43114300F00F0200F1604360
:101CC0000901043A03F564436244002848BF02F165
:101CD0000C03197010BD00004EF60C51CEF200013D
:101CE0000A684FF6FF031A4060F30A2242F0806050
:101CF00040F0FD7008607047002804BF0120704765
:101D00002DE9F04143F60808C4F202080446D8F869
:101D1000F8030D4600F00700814207D988F8F85310
:101D2000D8F8F80300F00700A84277D120688107AF
:101D300017D5410705D5D8F8001041F4E051C8F88F
:101D40000010010705D5D8F8001041F46041C8F82B
:101D50000010D8F80010A26821F0F0011143C8F873
:101D60000010C00740D1D8F8F80300F00700854202
:101D700007D288F8F853D8F8F80300F00700A84213
:101D80004CD12068410707D5D8F80010E26821F44B
:101D9000E0511143C8F80010000708D5D8F800003A
:101DA000216920F4604040EAC100C8F8000000F05A
:101DB0009DF8D8F8001044F27F02C1F30311C0F679
:101DC0000002515C40F2080220FA01F140F20400E6
:101DD000C2F200000068C2F200021160FFF7CCFE00
:101DE0000020BDE8F08100BF6068811E022907D293
:101DF00058F8081C89015CBF0120BDE8F08111E0A2
:101E0000012807D158F8081C89035CBF0120BDE8F0
:101E1000F08107E058F8081C890703D40120BDE8C9
:101E2000F08100BFD8F8001021F003010843C8F882
:101E30000000FFF79FF9064641F28837D8F8000006
:101E4000616800F00C00B0EB810F8CD0FFF792F9C5
:101E5000801BB842F2D90320BDE8F0810F22026056
:101E600043F60802C4F20202136803F0030343605E
:101E7000136803F0F0038360136803F4E053C36056
:101E8000D2F800C04FF4E05303EADC030361D2F858
:101E9000F80300F0070008607047000040F20800F7
:101EA00043F60801C2F20000C4F2020100680968AA
:101EB00044F28F02C1F38221C0F60002515CC84097
:101EC0007047000040F2080043F60801C2F200002B
:101ED000C4F202010068096844F28F02C1F3423182
:101EE000C0F60002515CC8407047000010B543F6D0
:101EF0000404C4F202046168C1F3810142F20040AB
:101F0000C0F2F400DFE801F002040A0210BD00BFD5
:101F100041F20020C0F27A0010BD00BF216801F03C
:101F20003F02216823684902C3F3881106D4A1FB4C
:101F300000010023FEF7BCF907E000BF41F20020DA
:101F4000C0F27A004843B0FBF2F021680222C1F3EC
:101F5000014102EB4101B0FBF1F010BD002804BFCC
:101F6000012070472DE9F04182B00446007843F625
:101F70000006C007C4F202060CD0B06800F00C00E6
:101F8000042840F081803068800303D56068002811
:101F900000F06881207880071BD5B06810F00C0F26
:101FA00009D0B06800F00C00082840F08780706805
:101FB000400200F183803068800703D5E068012883
:101FC00040F050813068216920F0F80040EAC100FB
:101FD00030602078000713D4207840072AD4A56900
:101FE000002D00F03A81B06800F00C00082840F0A5
:101FF000A580012D40F00E81012002B0BDE8F081E6
:102000006069002800F082800020C4F2472001218E
:10201000C0F8801EFFF7AEF8054600BF706F80075E
:10202000DAD4FFF7A7F8401B0228F7D9032002B043
:10203000BDE8F081306C5FEAC0080AD4002001904E
:10204000306C40F080503064306C00F08050019073
:10205000019847F20007C4F200073868C00547D46A
:10206000386840F480703860FFF784F8054600BF98
:102070003868C0053CD4FFF77DF8401B0228F7D92B
:10208000032002B0BDE8F081B06800F00C00082821
:1020900003D1706840023FF576AF61683068B1F5F2
:1020A000803F07D0B1F5A02F40F09A8040F4802007
:1020B0003060306840F4803030609AE0E06800289A
:1020C00040F20000C4F247205CD001210160FFF71C
:1020D00051F80546306880073FF574AFFFF74AF8BE
:1020E000401B0228F6D9032002B0BDE8F08100BFF2
:1020F000A168306F012905D0052955D140F00400B1
:102100003067306F40F00100306756E00020C4F2C5
:1021100047200021C0F8801EFFF72CF8054600BFBD
:10212000706F80077FF558AFFFF724F8401B022837
:10213000F6D9032002B0BDE8F08100BF0027C4F249
:10214000472700203866FFF715F8022D05460DD108
:102150003068800140F18A80FFF70CF8401B0228AC
:102160004FF00300F4D902B0BDE8F081306880017F
:1021700073D5FEF7FFFF401B02284FF00300F5D98F
:10218000F1E700BF00210160FEF7F4FF054600BF44
:10219000306880077FF51DAFFEF7ECFF401B02287B
:1021A0004FF00300F4D9DEE720F001003067306F14
:1021B000002920F0040030677AD0FEF7DBFF0546E7
:1021C00041F28837306F800700F18480FEF7D2FF3C
:1021D000401BB842F6D9032002B0BDE8F08100BF31
:1021E00020F4803030603068002920F48020306096
:1021F0007AD0FEF7BFFF0546306880033FF5CAAED0
:10220000FEF7B8FF401B6428F6D9032002B0BDE8F2
:10221000F08100BF7068E16900F480028A4221D138
:10222000216A00F03F028A421CD147F6C071626AFF
:102230000140B1EB821F15D1A16A4FF6FF73C903AC
:10224000994300F44032A1F580318A420AD1E16A13
:1022500000F07060B0EB016F04D1002002B0BDE867
:10226000F08100BF012002B0BDE8F08104F11C053F
:102270002FCD084340EA8210D9034FF6FF729143F5
:10228000A1F5803140EA056008437060012038669E
:10229000FEF770FF044600BF30688001DDD4FEF712
:1022A00069FF001B02284FF00300F5D95BE700BF70
:1022B000FEF760FF054641F2883700BF306F8007A8
:1022C00008D5FEF757FF401BB8424FF00300F5D981
:1022D00049E700BFB8F1000F3FF581AE306C20F048
:1022E000805030647BE600BFFEF744FF054600BF28
:1022F000306880037FF54EAEFEF73CFF401B64283C
:102300004FF00300F4D92EE770470000704700003B
:1023100090F83C20012A4FF0020241D010B580F81D
:102320003D200268D2F804E0D2F808C00C682EF014
:102330007003234340F6FF34C4F20004A24253600A
:1023400010DCB2F1804F1ED040F20043C4F2000313
:102350009A4218D040F60003C4F200039A4212D009
:1023600016E000BF40F60043C4F200039A420AD0D0
:1023700044F20003C4F201039A4204D00023C4F2E1
:1023800001039A4204D149682CF0800319439160FB
:102390000121002280F83D1080F83C20BDE810406B
:1023A00010467047002804BF0120704710B504464E
:1023B00090F83D0028B9002084F83C00204600F049
:1023C0001FF8022084F83D002068211D00F0D0FD98
:1023D000012084F8460084F83E0084F83F0084F829
:1023E000400084F8410084F8420084F8430084F8F7
:1023F000440084F8450084F83D00002010BD000032
:102400000068B0F1804F18BF704780B582B00020DF
:10241000019043F64000C4F202000168002241F03E
:10242000010101600068002100F0010001900198A5
:102430001C20FFF725FC1C2002B0BDE88040FFF700
:102440000DBC000090F83D1001291CBF0120704711
:10245000022180F83D10006840F6FF32C168C4F2E6
:102460000002904241F00101C1600FDCB0F1804FE9
:102470001DD040F20041C4F20001884217D040F65E
:102480000001C4F20001884211D017E040F600417B
:10249000C4F2000188420AD044F20001C4F20101F2
:1024A000884204D00021C4F20101884206D181682B
:1024B00001F00701062904BF00207047016841F0C0
:1024C000010101600020704790F83C20012A4FF084
:1024D00002026CD080B580F83D20D0F800C04FF6E5
:1024E0007772DCF8083023EA0202CCF808200B6887
:1024F0004F2B29DC1F2B45DD202B46D0302B44D021
:10250000402B40F0AF80D1F804E0C968DCF82030FF
:10251000DCF8202022F00102CCF82020DCF8182082
:1025200022F0F00242EA011123F00A0242EA0E020E
:10253000CCF81810CCF82020DCF8081041F0470146
:1025400021F0300128E000BF6F2B33DDB3F5005FD1
:1025500074D0B3F5805F21D0702B40F08380D1E937
:1025600001E3C968DCF8082043EA0E0322F47F4245
:1025700043EA01211143CCF80810DCF8081041F0BF
:10258000770109E00BB1102B6CD1DCF8081021F0B9
:102590007001194341F00701CCF808100022012115
:1025A00080F83D10002180F83C10BDE880401046C6
:1025B000704700BF502B21D0602B53D1D1F804E0DD
:1025C000C968DCF82030DCF8202022F01002CCF8BA
:1025D0002020DCF8182022F4704242EA013123F076
:1025E000A00242EA0E12CCF81810CCF82020DCF839
:1025F000081041F0670121F01001CDE7D1F804E0A7
:10260000C968DCF82030DCF8202022F00102CCF888
:102610002020DCF8182022F0F00242EA011123F019
:102620000A0242EA0E02CCF81810CCF82020DCF89E
:10263000081041F0570121F02001ADE7D1E901E395
:10264000C968DCF8082043EA0E0322F47F4243EA1B
:1026500001211143CCF80810DCF8081041F4804146
:102660009AE700BF01229AE77047000070B5044660
:102670000068C5680669B10716D515F0020113D0C8
:102680006FF002010161012121778069800703D089
:102690002046FFF7E9FF05E0204600F08FF82046CE
:1026A00000F08EF800202077700719D515F004008F
:1026B00016D020686FF00401016102212177806942
:1026C00010F4407F04D02046FFF7CEFF06E000BFA5
:1026D000204600F073F8204600F072F800202077C2
:1026E000300717D515F0080014D020686FF00801E6
:1026F000016104212177C069800703D02046FFF7DC
:10270000B3FF05E0204600F059F8204600F058F8E5
:1027100000202077F00619D515F0100016D020689B
:102720006FF01001016108212177C06910F4407F2A
:1027300004D02046FFF798FF06E000BF204600F0D7
:102740003DF8204600F03CF800202077F00718BF45
:1027500015F0010002D1300609D412E020686FF0B4
:1027600001010161204600F02DF8300609D515F071
:10277000800006D020686FF0800101612046FFF7DD
:10278000C3FD700609D515F0400006D020686FF033
:1027900040010161204600F01FF9B00658BF70BD2E
:1027A00015F0200008D021686FF0200220460A6151
:1027B000BDE87040FFF7AABD70BD00007047000083
:1027C000704700002DE9F04F89B040F200490546FE
:1027D000C4F202090068A9F58231884206D0B0F13E
:1027E000804F09D009B0BDE8F08F00BFFFF79AF91C
:1027F0002868B0F1804FF5D140F27007C2F20007AF
:10280000012040F294067870CDE905000320C2F261
:1028100000060024079005A930460894FEF718F931
:102820003046FEF71BFB30460A21FEF797FA30468A
:10283000FEF7ACF905461FFA80F83046FEF796FB26
:10284000788840F20C0AB0EB080B4FF010066FF0DE
:10285000010048BFCBF1000B7D80C2F2000ABBF142
:10286000C80F88BF022600EB4602B81D391D8AF842
:102870000060FDF7FCFEBBF1C80FBD8002D900204F
:1028800011E000BF06F010010024002007EB440215
:10289000938815891844D3885289184428440434ED
:1028A000A1421044F2D1B10705D507EB44018A8853
:1028B000C988104408440421BBF1C80F88BF012116
:1028C000C84086B20224B6F5F87F38BF012444F22E
:1028D0009702B6F5BA7F38BF0024387804EB44017C
:1028E000C0F6000211440F5C484601210022022577
:1028F000FEF73AFC484602210022FEF735FC484626
:102900004FF480710022FEF72FFC67B1022F03D035
:10291000012F0DD1012506E0484601210122FEF7D5
:1029200023FC4FF48075484629460122FEF71CFC23
:102930004FF4A57014A208FB00F1704352F8242054
:1029400014A640F294540B0B9AF8001056F8277016
:10295000000BC2F200048DE80301039211A220468D
:1029600064210497FDF71CFD2046FDF761FE82B24D
:1029700040F24C50C2F200002146322300F09AF897
:1029800009B0BDE8F08F00BFDD410008ED4100084F
:10299000E5410008D5410008C5410008F54100089F
:1029A000CD4100085B444D434D5D20543A253264CF
:1029B00020432020464C543A25326420573A252D96
:1029C000326420204144433A253464207C2025731E
:1029D000207C2025730D0A0070470000002804BFEA
:1029E0000120704710B5044690F8410028B9002036
:1029F00084F84000204600F021F8242084F84100AB
:102A00002068C16821F40051C160204600F02CFB11
:102A10002068016921F490410161416921F02A0196
:102A20004161C16841F40051C1600020202160640F
:102A300084F8411084F84210606310BD80B586B000
:102A400041F200010068C4F20101002288420592AF
:102A5000CDE903220292019202D006B080BD00BFF0
:102A600043F630000092C4F20200436943F01003C1
:102A70004361436903F010030093009B00920368D5
:102A800043F001030360006800F00100009000982B
:102A90004FF4C06001900220CDE9020203200490AF
:102AA0000720059001F5704001A9FEF78DFA06B0E8
:102AB00080BD00002DE9F04381B0044690F841004C
:102AC000202809D100294FF0010018BF002A07D1A2
:102AD00001B0BDE8F08300BF022001B0BDE8F08383
:102AE0000020606421201D460E4684F841001746F0
:102AF000FEF740FBA784E784A1688146B1F5805FBB
:102B000002D1206900285DD037460020E28C216880
:102B1000002A5DD06A1C24D0002D4AD0804600BF18
:102B20000868000608D4FEF725FBA0EB0900A842C0
:102B30007AD82168C868F3E717B117F8010B04E0E9
:102B400038F8020B00276FF35F204860E08C0138F3
:102B5000E084E08C0028E3D13AE000BF0A68120666
:102B600009D40A68120606D40A6812065CBF0A680D
:102B70005FEA0262F2D51FB117F8012B05E000BF32
:102B800030F8022B00276FF35F224A60E28C013A93
:102B9000E284E28C002AE4D11AE000BF30F8022B74
:102BA00000276FF35F224A60E28C013AE284E28CF4
:102BB00072B10A68120635D5002FEFD017F8012B35
:102BC000F1E700BF00273046E28C2168002AA1D13E
:102BD000086840061ED42DB3681C14D1086840064E
:102BE0002AD40868400627D40868400624D4086818
:102BF00040064FF00000F1D50DE000BF2068C1682D
:102C00000068400618D4FEF7B5FAA0EB0900A84208
:102C1000F4D909E00020202184F8411001B0BDE87A
:102C2000F08300BFFEF7A6FA0320202184F84110AC
:102C300001B0BDE8F08300BF0020202184F84110DE
:102C400001B0BDE8F0830000FEE70000B0B584B03D
:102C500040F2940042F2000101220024C2F200007E
:102C6000C4F201010125C0F600720394057680F8D4
:102C70002040C0E90A24C56180F83040C0E9001452
:102C8000C0E90244C0E90455FDF784FF002818BFDD
:102C9000FDF7DAFE40F29400C2F200006946CDE989
:102CA00000550294FDF7D4FE002818BFFDF7CCFEB6
:102CB00004B0B0BD2DE9F04F87B0002743F63000D7
:102CC0000697CDE90477CDE902770197C4F20200B7
:102CD000016841F2000841F0100101600168C4F28E
:102CE000020801F010010191019901970168002289
:102CF00041F00401016001684FF0080B01F004018C
:102D0000019101990197016841F08001016001681A
:102D100001F08001019101990197016841F00101E1
:102D20000160016801F001010191019901970168B9
:102D300041F002010160016801F002010191019975
:102D40000197016841F0080101600068082100F066
:102D50000800019001984046FEF706FAA8F50064C5
:102D60002046012101224FF0010AFEF7FDF9A8F5E6
:102D70004069484640F203110022FEF7F5F9A8F534
:102D8000806528464FF210010022FEF7EDF904207D
:102D900002AECDE90207404631460497FEF714F92A
:102DA00040463146CDE902BACDE90477FEF70CF989
:102DB000322002904FF49010CDE90307404631468F
:102DC000FEF702F94FF6C17002904FF0030B404638
:102DD0003146CDE903B7FEF7F7F842F67630CDE994
:102DE000020B204631460497FEF7EEF820463146A6
:102DF000CDE902AACDE90477FEF7E6F840F2031028
:102E0000CDE9020A48463146CDE90477FEF7DCF801
:102E10004EF2B400CDE9020B484631460497FEF766
:102E2000D3F840F6CF70CDE9020B2846314604971F
:102E3000FEF7CAF84FF21000CDE9020A28463146E3
:102E4000CDE90477FEF7C0F84FF40140CDE9020B5D
:102E5000A8F5805031460497FEF7B6F82020CDE95A
:102E60000207284631460497FEF7AEF807B0BDE8E2
:102E7000F08F000080B586B040F204500021C2F20D
:102E8000000041F2873C0591CDE90311CDE9001125
:102E90004FF080420F23C0E9021C01618021C0E98C
:102EA00000238161FFF77EFA002818BFFDF7CCFDF3
:102EB0004FF48050029040F20450C2F2000002A988
:102EC000FFF702FB002818BFFDF7BEFD40F20450DB
:102ED000C2F200006946FFF71BFA002818BFFDF791
:102EE000B3FD06B080BD000080B540F24C5041F209
:102EF0000001C2F20000C4F2010100234FF00C0CEB
:102F00004FF4165280E80E00C0E90333C0E905C350
:102F1000C361FFF763FD002808BF80BDBDE88040A6
:102F2000FDF792BDFEE70000FEE7000040F2DC0086
:102F3000C2F20000FEF72EB9704700007047000093
:102F4000704700004EF68850CEF20000016841F450
:102F5000700101607047000040F2BC40C2F2000006
:102F6000FFF784BB40F20450C2F20000FFF77EBBC3
:102F7000B0B540F2FF7E0568C4F2000E40F2000CCE
:102F80007045C4F2010C1DDD40F60003C4F20003DD
:102F9000984220D060451ED040F60043C4F20003A2
:102FA000984218D04FF6FF73C4F2000398421DDC1C
:102FB000704527DCB0F1804F3CD040F20043C4F2B2
:102FC000000335E0B0F1804F05D040F20043C4F279
:102FD00000039842E6D14B6825F0700243EA0205EF
:102FE0004FF6FF73C4F200039842E1DD44F2FF3371
:102FF000C4F20103984211DC60451BD044F2000387
:1030000014E000BF40F60003C4F20003984211D060
:1030100040F60043C4F200030AE000BF44F6000398
:10302000C4F20103984205D044F20043C4F2010304
:10303000984204D1CB6825F4407243EA02050A683D
:103040008C684B696045C462826202D10969CCF820
:103050003010026825F0800142F00402194302603A
:10306000012242610160B0BDB0B50446006804F1C0
:1030700008030ECB0569194325F440552A43026124
:103080006269E3691143C268194349F20C639A43C8
:103090001143C1604169A26921F4407141F20043CA
:1030A000114340F48062C4F201039A42416103D1AA
:1030B000FEF708FF02E000BFFEF7F0FEE1694FF601
:1030C0009C7563681922C0F6FF75B1F5004FA0FB2F
:1030D00002011FD15A00DB0FFDF7EAF848F21F5139
:1030E000C5F2EB11A0FB01235A0905F1805302FB45
:1030F0000300322303EBC000A0FB01014FF4F87082
:1031000000EA111000EB0210C1F3421108442168DB
:103110008860B0BD9A009B0FFDF7CAF848F21F51B6
:10312000C5F2EB11A0FB01235A0902FB0500322373
:1031300003EB0010A0FB0101F02000EA511000EBAE
:103140000210C1F34311084421688860B0BD00003B
:103150000F2907D800EB8100D0F884136FF3DF311B
:10316000C0F88413002070470146012081F8200335
:103170000022002081F8212381F8222370470000DB
:1031800010B50446012084F82103002084F82003B0
:1031900084F82303204600F027F821792046FFF722
:1031A000D7FF61792046FFF7D3FF002010BD000054
:1031B000D0F8C4130131C0F8C41301780B2918BF2B
:1031C0007047D0F87C1309B189690847704700003F
:1031D000002180F82313012180F82113704700009B
:1031E000012180F82313704780B5D0F8D003FEF793
:1031F00085FC40F200220223C100C0F20122042813
:1032000038BF22FA01F3D8B280BD000081B000219E
:1032100000910099013100910099B1F1706F51D87E
:10322000016900291ED40099013100910099B1F182
:10323000706F47D80169002914D4009901310091B9
:103240000099B1F1706F3DD8016900290AD4009945
:10325000013100910099B1F1706F33D80169B1F17A
:10326000FF3FD6DC0021009110210161009901315E
:1032700000910099B1F1706F24D80169C9061DD57C
:103280000099013100910099B1F1706F1AD801696C
:10329000C90613D50099013100910099B1F1706F01
:1032A00010D80169C90609D500990131009100992A
:1032B000B1F1706F06D80169C906D7D4002001B0FA
:1032C000704700BF032001B07047000081B00022AA
:1032D0000092009A01320092009AB2F1706F51D8B8
:1032E0000269002A1ED4009A01320092009AB2F1BB
:1032F000706F47D80269002A14D4009A01320092F4
:10330000009AB2F1706F3DD80269002A0AD4009A7F
:1033100001320092009AB2F1706F33D80269B2F1B3
:10332000FF3FD6DC89010022203100920161009923
:10333000013100910099B1F1706F23D801698906BC
:103340001DD50099013100910099B1F1706F19D824
:103350000169890613D50099013100910099B1F1F5
:10336000706F0FD80169890609D500990131009164
:103370000099B1F1706F05D801698906D7D4002092
:1033800001B07047032001B070470000406900F0B1
:103390000100704710B581B00022009200EB41138C
:1033A000D3F80045D3F800E5D3F80415826803F597
:1033B000A06C92060AD5002908D4BEF1FF3F02DCBA
:1033C00014F4802104D0002001B010BD61034BD45F
:1033D000DCF8001041F08041CCF8001081688906CB
:1033E00000F19080C16ADCF8000011F47F0F40F01A
:1033F0008B8020F00040CCF80000DCF8000040F0AA
:103400000040CCF800000098013000900098B0F522
:103410007A7FD8D8DCF80000B0F1FF3FD3DC009809
:10342000013000900098B0F57A7FCCD8DCF800002D
:10343000B0F1FF3FC7DC0098013000900098B0F574
:103440007A7FC0D8DCF80000B0F1FF3FBBDC009809
:10345000013000900098B0F57A7FB4D8DCF8000015
:10346000B0F1FF3FCFDDAEE7DCF8001041F0804166
:10347000CCF80010D0F81014DCF8000011F47F0F25
:1034800042D120F00040CCF80000DCF8000040F011
:103490000040CCF800000098013000900098B0F592
:1034A0007A7F90D8DCF80000B0F1FF3F3FF78BAF98
:1034B0000098013000900098B0F57A7F3FF683AF16
:1034C000DCF80000B0F1FF3F3FF77DAF009801301E
:1034D00000900098B0F57A7F3FF675AFDCF80000F9
:1034E000B0F1FF3F3FF76FAF0098013000900098B8
:1034F000B0F57A7F3FF667AFDCF80000B0F1FF3F30
:10350000C9DD60E7DCF8000040F00040CCF80000C6
:10351000002001B010BD0000D0F8140480B2704744
:10352000D0F8002401F0030322F00302C0F80024C5
:10353000D0F80024012942EA0302C0F8002409D08F
:1035400002291CBF0120704741F27071C0F80414B9
:10355000002070474BF68031C0F8041400207047FB
:1035600000EB4110D0F80815D0F80C050840704762
:10357000416980690840704710B5930802F0030E56
:103580002CD05A1E032A03F0030C0FD323F003039D
:103590004FF480528458043B0C6084584C6084582B
:1035A0008C608458CC6001F11001F3D1BCF1000FA4
:1035B00014D04FF4805284580B46BCF1010F43F8ED
:1035C000044B05D11946BEF1000F0AD11EE000BF21
:1035D0008258BCF1020F4A601AD10831BEF1000FC7
:1035E00014D04FF4805280580A46BEF1010F02F801
:1035F000010B04BF104610BD020ABEF1020F4A7053
:1036000004BF881C10BD000C88700331084610BD33
:103610004FF4805282588A600C31BEF1000FE0D125
:10362000F4E7000083B00146002000908A6822F091
:1036300001028A6001900198013001900198B0F177
:10364000706F51D8086900281ED40198013001908C
:103650000198B0F1706F47D80869002814D4019818
:10366000013001900198B0F1706F3DD808690028D1
:103670000AD40198013001900198B0F1706F33D8ED
:103680000869B0F1FF3FD6DC002001904FF4846060
:1036900008610198013001900198B0F1706F23D852
:1036A000086980061DD50198013001900198B0F19C
:1036B000706F19D80869800613D501980130019000
:1036C0000198B0F1706F0FD80869800609D501988C
:1036D000013001900198B0F1706F05D8086980063B
:1036E000D7D4002001E000BF012000220292029AFC
:1036F00001320292029AB2F1706F4FD80A69002A21
:103700001ED4029A01320292029AB2F1706F45D829
:103710000A69002A14D4029A01320292029AB2F182
:10372000706F3BD80A69002A0AD4029A01320292C9
:10373000029AB2F1706F31D80A69B2F1FF3FD6DC5C
:103740000022029210220A61029A01320292029A27
:10375000B2F1706F22D80A69D20620D5029A0132DE
:103760000292029AB2F1706F18D80A69D20616D581
:10377000029A01320292029AB2F1706F0ED80A696F
:10378000D2060CD5029A01320292029AB2F1706FFF
:1037900004D80A69D206D7D401E000BF0120D1F8CD
:1037A000003547F6FF72C3F6FF72134003F1804302
:1037B000C1F80035D1F82035134003F18043C1F83A
:1037C0002035D1F84035134003F18043C1F840352E
:1037D000D1F86035134003F18043C1F86035D1F86A
:1037E0008035134003F18043C1F88035D1F8A0350E
:1037F000134003F18043C1F8A035D1F8C035134020
:1038000003F18043C1F8C035D1F8E035134003F12E
:103810008043C1F8E035D1F80036134003F180430E
:10382000C1F80036D1F82036134003F18043C1F8C7
:103830002036D1F84036134003F18043C1F84036BA
:10384000D1F86036134003F18043C1F86036D1F8F7
:103850008036134003F18043C1F88036D1F8A0369A
:10386000134003F18043C1F8A036D1F8C0361340AD
:1038700003F18043C1F8C036D1F8E036134003F1BC
:103880008043C1F8E036D1F80035134003F14043DE
:10389000C1F80035009B01330093009BB3F57A7F9C
:1038A00027D8D1F80035B3F1FF3F22DC009B01336C
:1038B0000093009BB3F57A7F1BD8D1F80035B3F1A4
:1038C000FF3F16DC009B01330093009BB3F57A7F2A
:1038D0000FD8D1F80035B3F1FF3F0ADC009B01336C
:1038E0000093009BB3F57A7F03D8D1F80035002B05
:1038F000D0D4D1F82035134003F14043C1F820352E
:10390000009B01330093009BB3F57A7F27D8D1F851
:103910002035B3F1FF3F22DC009B01330093009B75
:10392000B3F57A7F1BD8D1F82035B3F1FF3F16DC11
:10393000009B01330093009BB3F57A7F0FD8D1F839
:103940002035B3F1FF3F0ADC009B01330093009B5D
:10395000B3F57A7F03D8D1F82035002BD0D4D1F835
:103960004035134003F14043C1F84035009B01331B
:103970000093009BB3F57A7F27D8D1F84035B3F197
:10398000FF3F22DC009B01330093009BB3F57A7F5D
:103990001BD8D1F84035B3F1FF3F16DC009B013353
:1039A0000093009BB3F57A7F0FD8D1F84035B3F17F
:1039B000FF3F0ADC009B01330093009BB3F57A7F45
:1039C00003D8D1F84035002BD0D4D1F8603513405E
:1039D00003F14043C1F86035009B01330093009B25
:1039E000B3F57A7F27D8D1F86035B3F1FF3F22DCF9
:1039F000009B01330093009BB3F57A7F1BD8D1F86D
:103A00006035B3F1FF3F16DC009B01330093009B50
:103A1000B3F57A7F0FD8D1F86035B3F1FF3F0ADCF8
:103A2000009B01330093009BB3F57A7F03D8D1F854
:103A30006035002BD0D4D1F88035134003F14043DA
:103A4000C1F88035009B01330093009BB3F57A7F6A
:103A500027D8D1F88035B3F1FF3F22DC009B01333A
:103A60000093009BB3F57A7F1BD8D1F88035B3F172
:103A7000FF3F16DC009B01330093009BB3F57A7F78
:103A80000FD8D1F88035B3F1FF3F0ADC009B01333A
:103A90000093009BB3F57A7F03D8D1F88035002BD3
:103AA000D0D4D1F8A035134003F14043C1F8A0357C
:103AB000009B01330093009BB3F57A7F27D8D1F8A0
:103AC000A035B3F1FF3F22DC009B01330093009B44
:103AD000B3F57A7F1BD8D1F8A035B3F1FF3F16DCE0
:103AE000009B01330093009BB3F57A7F0FD8D1F888
:103AF000A035B3F1FF3F0ADC009B01330093009B2C
:103B0000B3F57A7F03D8D1F8A035002BD0D4D1F803
:103B1000C035134003F14043C1F8C035009B013369
:103B20000093009BB3F57A7F27D8D1F8C035B3F165
:103B3000FF3F22DC009B01330093009BB3F57A7FAB
:103B40001BD8D1F8C035B3F1FF3F16DC009B013321
:103B50000093009BB3F57A7F0FD8D1F8C035B3F14D
:103B6000FF3F0ADC009B01330093009BB3F57A7F93
:103B700003D8D1F8C035002BD0D4D1F8E0351340AC
:103B800003F14043C1F8E035009B01330093009BF3
:103B9000B3F57A7F27D8D1F8E035B3F1FF3F22DCC7
:103BA000009B01330093009BB3F57A7F1BD8D1F8BB
:103BB000E035B3F1FF3F16DC009B01330093009B1F
:103BC000B3F57A7F0FD8D1F8E035B3F1FF3F0ADCC7
:103BD000009B01330093009BB3F57A7F03D8D1F8A3
:103BE000E035002BD0D4D1F80036134003F1404328
:103BF000C1F80036009B01330093009BB3F57A7F38
:103C000027D8D1F80036B3F1FF3F22DC009B013307
:103C10000093009BB3F57A7F1BD8D1F80036B3F13F
:103C2000FF3F16DC009B01330093009BB3F57A7FC6
:103C30000FD8D1F80036B3F1FF3F0ADC009B013307
:103C40000093009BB3F57A7F03D8D1F80036002BA0
:103C5000D0D4D1F82036134003F14043C1F82036C8
:103C6000009B01330093009BB3F57A7F27D8D1F8EE
:103C70002036B3F1FF3F22DC009B01330093009B11
:103C8000B3F57A7F1BD8D1F82036B3F1FF3F16DCAD
:103C9000009B01330093009BB3F57A7F0FD8D1F8D6
:103CA0002036B3F1FF3F0ADC009B01330093009BF9
:103CB000B3F57A7F03D8D1F82036002BD0D4D1F8D1
:103CC0004036134003F14043C1F84036009B0133B6
:103CD0000093009BB3F57A7F27D8D1F84036B3F133
:103CE000FF3F22DC009B01330093009BB3F57A7FFA
:103CF0001BD8D1F84036B3F1FF3F16DC009B0133EF
:103D00000093009BB3F57A7F0FD8D1F84036B3F11A
:103D1000FF3F0ADC009B01330093009BB3F57A7FE1
:103D200003D8D1F84036002BD0D4D1F860361340F8
:103D300003F14043C1F86036009B01330093009BC0
:103D4000B3F57A7F27D8D1F86036B3F1FF3F22DC94
:103D5000009B01330093009BB3F57A7F1BD8D1F809
:103D60006036B3F1FF3F16DC009B01330093009BEC
:103D7000B3F57A7F0FD8D1F86036B3F1FF3F0ADC94
:103D8000009B01330093009BB3F57A7F03D8D1F8F1
:103D90006036002BD0D4D1F88036134003F1404375
:103DA000C1F88036009B01330093009BB3F57A7F06
:103DB00027D8D1F88036B3F1FF3F22DC009B0133D6
:103DC0000093009BB3F57A7F1BD8D1F88036B3F10E
:103DD000FF3F16DC009B01330093009BB3F57A7F15
:103DE0000FD8D1F88036B3F1FF3F0ADC009B0133D6
:103DF0000093009BB3F57A7F03D8D1F88036002B6F
:103E0000D0D4D1F8A036134003F14043C1F8A03616
:103E1000009B01330093009BB3F57A7F27D8D1F83C
:103E2000A036B3F1FF3F22DC009B01330093009BDF
:103E3000B3F57A7F1BD8D1F8A036B3F1FF3F16DC7B
:103E4000009B01330093009BB3F57A7F0FD8D1F824
:103E5000A036B3F1FF3F0ADC009B01330093009BC7
:103E6000B3F57A7F03D8D1F8A036002BD0D4D1F89F
:103E7000C036134003F14043C1F8C036009B013304
:103E80000093009BB3F57A7F27D8D1F8C036B3F101
:103E9000FF3F22DC009B01330093009BB3F57A7F48
:103EA0001BD8D1F8C036B3F1FF3F16DC009B0133BD
:103EB0000093009BB3F57A7F0FD8D1F8C036B3F1E9
:103EC000FF3F0ADC009B01330093009BB3F57A7F30
:103ED00003D8D1F8C036002BD0D4D1F8E0361A4040
:103EE00002F14042C1F8E026009A01320092009AA5
:103EF000B2F57A7F27D8D1F8E026B2F1FF3F22DC75
:103F0000009A01320092009AB2F57A7F1BD8D1F85C
:103F1000E026B2F1FF3F16DC009A01320092009ACF
:103F2000B2F57A7F0FD8D1F8E026B2F1FF3F0ADC74
:103F3000009A01320092009AB2F57A7F03D8D1F844
:103F4000E026002AD0D44FF0FF32C1F814244A6191
:103F50008A6842F001028A6003B07047FEE7000001
:103F600092B0FDF7EDFD06AC20463021FCF7C1FB19
:103F7000002543F640000595CDE90355CDE90155EF
:103F80000095C4F202000168022241F080510160F4
:103F9000006800F080500090009847F20000009503
:103FA000C4F20000016862F38F310160006800F420
:103FB0004040009000980120099010200A9020466F
:103FC00006920C95FDF7CAFF10B172B6FEE700BF6E
:103FD0000F20CDE9010501A80021CDE90355059584
:103FE000FDF78AFE10B172B6FEE700BFFEF762FE73
:103FF000FEF72CFEFEF73EFFFEF776FF40F2700460
:1040000040F20450C2F200040025C2F20000C4E9EC
:104010000155C4E90355C4E90555C4E90755FEF740
:1040200011FA40F24C5044F2A001C2F20000C0F676
:1040300000014FF49272C823FEF73CFD3220FCF7DA
:10404000AFFF6570FAE730380A2801D201207047C7
:1040500000207047F1EE100A4FF6FF71C0F2C03138
:1040600020EA010040F04070E1EE100A70470400C1
:104070000008000000000000000200010000100025
:104080000000000000000001020304060708090008
:104090000000000102030400000301010302010308
:1040A0000D0A3D3D3D2020444D434D2D5756414680
:1040B000202B204C4D3335207C2053544D33324639
:1040C000343031432D444953434F20203D3D3D0D75
:1040D0000A202053454E534F52203A204C4D333541
:1040E00020564F5554202D3E205041312028414428
:1040F00043315F494E31290D0A2020574952494E1C
:1041000047203A202B56382D3E332E33562020564A
:104110004F55542D3E5041312020474E442D3E47AF
:104120004E440D0A20204F5554505554203A2050EB
:1041300042303D4C45445F5245442020205042319E
:104140003D4C45445F475245454E20202050423863
:104150003D52454C41590D0A2020535441544520AD
:10416000203A204E4F524D414C3A3C3330432020B0
:104170005741524E494E473A33302D333943202070
:1041800044414E4745523A3E3D3430430D0A3D3D91
:104190003D3D3D3D3D3D3D3D3D3D3D3D3D3D3D3D4F
:1041A0003D3D3D3D3D3D3D3D3D3D3D3D3D3D3D3D3F
:1041B0003D3D3D3D3D3D3D3D3D3D3D3D3D3D3D3D2F
:1041C0003D3D0D0A00526564202020200049646CAA
:1041D0006520202000477265656E2020004E4F52FA
:1041E0004D414C200044414E47455220005741521A
:1041F0004E494E47005265642B524C590000000056
:10420000204200080000002010000000F801000813
:104210003042000810000020F00B000018020008D7
:1042200001000000100000000024F4001000000055
:040000050800019559
:00000001FF
